:020000040800F2
:1000000050260020D5000008E518000871160008E9
:1000100000000000000000000000000000000000E0
:10002000000000000000000000000000691A000845
:1000300000000000000000002D190008FD1C000851
:10004000E7000008E7000008E7000008E7000008F4
:10005000E7000008E7000008E7000008E7000008E4
:10006000E7000008E7000008E7000008E7000008D4
:10007000E7000008E7000008E7000008E7000008C4
:10008000E7000008E7000008E700000800000000A3
:10009000E7000008E7000008E7000008E7000008A4
:1000A000E7000008E7000008E7000008E700000894
:1000B000E7000008E7000008E7000008E700000884
:1000C0000348854600F086F800480047ED26000802
:1000D000502600200448804704480047FEE7FEE71A
:1000E000FEE7FEE7FEE7FEE7951D0008C1000008F9
:1000F00030B50B46014600202022012409E00D46C0
:10010000D5409D4205D31D469540491B2546954047
:1001100040191546521E002DF1DC30BDF0B51FB45C
:100120000646002082B005464024019100901BE065
:10013000019922460F46304600F03AF8049A059B92
:10014000801A994110D310461946224600F020F833
:10015000361A8F410197224601200021009F00F0AE
:1001600017F838184D4100902046641E0028DFDC47
:10017000019B00982946324607B0F0BD0321001DBF
:10018000401E037812021A43491EF9D510467047E3
:1001900010B5202A04DB0146203A9140002010BD12
:1001A000914020239C1A0346E3401943904010BD20
:1001B00010B5202A04DB0846203AD040002110BDAB
:1001C0000B46D340D0402024A21A91400843194640
:1001D00010BD0000064C0125064E05E0E36807CC83
:1001E0002B430C3C98471034B442F7D3FFF76CFF15
:1001F000FC2700082C28000803B40148019001BD29
:10020000F1000020F7B5002416460546570809E01E
:100210000198A1000818FFF7B1FF1021C841296813
:100220000860641CA742F3D8F00704D00198A1002D
:10023000405A2968088028680068FEBDFEB505465A
:100240000024900816460F4601900EE0A000C01949
:100250000090FFF793FF00BA010A00980902C078E6
:100260000143286801600198641CA042EED8B007E1
:1002700021D0B007800F012803D1A1002A68795C42
:100280001170022808D1A000C1194878097800022D
:100290000843296840BA0880F04380070BD1A000CA
:1002A000C01941780278090211432A6849BA1180BD
:1002B00029688078087028680068FEBDF7B5FFB02F
:1002C0000446FFB00020012584B0AD021646AF08F9
:1002D00000901FE004CC8300CA50401C8742F9D82C
:1002E000FFA83A46006900F055F8002808D00DA094
:1002F00002F0BAF9032000907FB07FB007B0F0BDE4
:1003000020210E4800F0F8FAFFA800694119FFA863
:10031000761B0161002E02D0002001A9DEE70098C3
:10032000EAE70000577269746520666C61736820A3
:100330006572726F722121210D0A000000080050C1
:100340007FB500260D460446009600F0F5F90196AB
:100350000294AC420AD2281BC0090390694601A846
:1003600000F086F9002801D00120009000F0BCF9CF
:10037000009804B070BD000010B500F0DDF904492C
:100380000248886100F0B0F910BD0000002F0300A2
:1003900000200240F8B517460C460646002500F03E
:1003A000CBF9B800071915E021463046FFF724FFC6
:1003B000002801D003250FE08100725861588A425D
:1003C00001D0022502E0401C1028F5D3403440360D
:1003D000002D01D1A742E7D800F086F92846F8BDE4
:1003E00010B5084900224A6107494B684C15234360
:1003F0004B604B68082423434B60C009C001026076
:1004000010BD0000340600200020024010B5214A33
:1004100000219069C305204804D54169022319438E
:100420004161911593699B0505D5436901242343D7
:1004300043616302194393695B0505D54369082449
:1004400023434361E301194393691B0505D54369C0
:100450000424234343616302194393699B0405D534
:1004600043691024234343616302194393699B0347
:1004700004D5446920231C43446119439369DB0379
:1004800005D54369402423434361A00201439161A0
:1004900010BD0000002002403406002070B5054663
:1004A00000F034FA0646184C0AE0681C08D0002D0B
:1004B00004D000F02BFA801BA84201D9032070BDA4
:1004C000A069C007F1D1A069800701D50220A06111
:1004D000A069C00511D4A06980050ED4A0694005AB
:1004E0000BD4A069000508D4A069800405D4A069D4
:1004F000800302D4A069C00303D5FFF787FF012062
:1005000070BD002070BD00000020024030B51F23E8
:1005100001252C469C400C4201D15B1EF9D2002AD9
:100520000FD0082A09D0102A04D0182A09D1072B85
:1005300005D206E0082B02D203E0102B01D30120E4
:1005400030BD0368596101688868182398431043D7
:100550008860002030BDF8B504460020257F0346A2
:10056000012D0FD001252577022666772668B7680A
:100570002F43B760266A012E10D0022E12D0032E10
:1005800014D106E00220F8BD83002668CB58336002
:10059000401C9042F8D32068036807E02046FFF72C
:1005A0004DFE02E02046FFF72DFE03466577002052
:1005B00020771846F8BD000010B5040012D0607F07
:1005C000002803D12077204600F034F8022060771D
:1005D0002079002808D02046E268A168FFF796FF3E
:1005E000002809D0012010BD216811484861206809
:1005F00081681822914381606079002814D02069B5
:10060000216808612168886860229043626910430C
:1006100088602168886880229043A26910438860BE
:1006200001206077002010BD0020C043E8E70000F3
:10063000B71DC10408B500680549884207D10548BF
:10064000026B81140A430263006B0840009008BDEE
:10065000003002400010024031B500F057F9044666
:1006600000F054F90099001B8842F9D338BD00000E
:10067000F8B51A4E0546307C0F46012807D00120F8
:1006800030741748FFF70AFF010002D021E0022072
:10069000F8BD0020C04338606C6814E02046FFF7C6
:1006A0009FFE0F48FFF7FAFE01460E4842680823F6
:1006B0009A434260426843159A434260002901D040
:1006C0003C6006E08034A8686A68C0018018A042D7
:1006D000E4D8002030740846F8BD0000340600203D
:1006E00050C3000000200240034841680222114329
:1006F000416000207047000000200240F8B50C4C1B
:100700001646207C0F46012808D001202074094895
:10071000FFF7C4FE0025002802D006E00220F8BD45
:1007200065613E600348FFF7B9FE2574F8BD00001F
:100730003406002050C300000948416889070CD5E1
:100740004168C90703D00749C1600749C16007492B
:1007500001610749016100207047012070470000D6
:1007600000200240EFCDAB8905040302BFAE9D8C93
:1007700016151413F8B500230124A7E027469F405F
:100780003A4070D04D68022D01D0122D14D1DD08F1
:10079000AD002D1800952D6A5E07AC46F50E0F26AC
:1007A000AE46AE406546B543AC460E697546AE40B2
:1007B00065462E43009D2E624D68012D05D0022D09
:1007C00003D0112D01D0122D16D185680326AC4619
:1007D0005D00AE46AE406546B543AC46CE68754654
:1007E000AE4065462E43866046680D79BE43ED06F1
:1007F000ED0F9D403543456006685F000325BD4011
:10080000AE46AE430D79B446AE07B60FBE40654660
:100810002E430660C6687546AE438D68BD403543BD
:10082000C5604D68ED0050D52B4D6E6B26436E6351
:100830009E082A4DB6007519AC46AD689E07360F66
:100840000F27B740BD4305273F07B84201D1002716
:100850001AE0234FB84201D1012715E0214FB842D9
:1008600002D1022710E030E01F4FB84201D1032728
:100870000AE01E4FB84201D1042705E01C4FB842E0
:1008800001D1052700E00627B7402F436546AF603A
:10089000184D2E684F689643FF0300D516432E600F
:1008A0006E684F689643BF0300D516436E60AE680E
:1008B0004F689643FF0200D51643AE60EE684F685E
:1008C0009643BF0200D51643EE605B1C0A681546CE
:1008D000DD4000D052E7F8BD0010024000000140AA
:1008E0000004005000080050000C005000100050A0
:1008F000001C00500004014042694A4042617047B8
:10090000002A01D081617047816270470148006808
:10091000704700004C01002002480168491C01603A
:10092000704700004C01002010B506480168022203
:1009300011430160032000F007F800F019F80020CF
:1009400010BD00000020024010B5044607487D217C
:10095000C9000068FFF7CCFB00F032FD0022214601
:10096000501E00F021F8002010BD000050010020B2
:1009700010B50C48416B012211434163816B0204A5
:100980001143816300221146501F00F00DF8002230
:100990001146901E00F008F800221146501E00F08B
:1009A00003F810BD0010024010B500F09DFF10BD0F
:1009B000F8B5684C074601210020C903644E654A1A
:1009C0004034102F73D011DC012F75D0022F70D05E
:1009D000042F6FD0082F21D1E16803231B03194096
:1009E00069D0BC026310A1427AD09EE003255A4B25
:1009F0002D04202F08D0402F32D0FF3F7F1E6BD018
:100A000007263602B74209D12669246901272C40FE
:100A10003F04BC4203D1B2055AE00846F8BD0121AB
:100A200049048C4203D1B107F8D54C48F8BDAC421B
:100A3000FCD111688903F9D5106803210905084024
:100A400001210905401A09D0401A05D0884201D178
:100A50004348F8BD1846F8BD4248F8BD4248F8BDC5
:100A6000E1680124A406214006D0A142F7D1916893
:100A70008907F4D53D48F8BD11688901FBD5D068D8
:100A8000D16880023A4C000F245C0802810FD068C4
:100A9000491CC00306D41068C00601D5184602E000
:100AA000304600E033486043FFF722FBF8BD3FE0EB
:100AB00002E01DE02AE026E0E3689B079B0F0CD0D4
:100AC000022B0DD0012B10D0032BEFD12269920500
:100AD000002AA2DBEAE703E02EE000F0EDF9E5E70B
:100AE00011684907E2D53046E0E700F0F5F9DDE7A7
:100AF000E3680C252B4006D0082BF1D0042BF4D052
:100B00000C2BE3D0D2E700F0C7F9CFE7E368032569
:100B1000AD022B40F7D00127FF02BB42E0D07A1094
:100B20009342E2D0AB42D1D0C0E79942DDD0BDE7DD
:100B3000916B4902E7D4B9E7E1682940E3D001238A
:100B40005B049942CCD05A109142CED0AEE700005F
:100B50000024F4000010024000093D0088900000CD
:100B600020A1070040420F0080841E00006CDC02C0
:100B7000E827000800127A00F8B504460068664DC0
:100B8000810601D400057DD5634E0027403EB06B41
:100B9000C00004D4B06B31040843B06301275F4840
:100BA0000168C90511D40168821511430160FFF77E
:100BB000ADFE009005E0FFF7A9FE0099401A6428F9
:100BC00044D856480068C005F5D5316803200005B3
:100BD000626801401040884205D10323A0681B05CC
:100BE0001840884208D09003800F032804D1306851
:100BF000800301D50120F8BD2869032109040840BC
:100C000029D00A40824202D02278920606D4A268F5
:100C10000A4082421FD0208800051CD528692A6915
:100C200088430121C9040A432A612A698A432A6147
:100C30002861C0050FD5FFF769FE009008E0FFF7B7
:100C400065FE0099411A3648814201D90320F8BD5A
:100C500028698005F3D561688803800F032805D1D2
:100C600032680005824301400A433260286903224A
:100C700061681204114008432861002F06D0B06B50
:100C8000012100E002E009078843B0632078C00733
:100C900005D0E868E168800880000843E8602078B3
:100CA000800705D5E8680C21884321690843E8607E
:100CB0002078400706D5E8680321890288436169E6
:100CC0000843E8602078000706D5E8680321090397
:100CD0008843A1690843E8602088C00506D5E86814
:100CE000032109048843E1690843E860207840064D
:100CF00006D5E868012189068843616A0843E860EF
:100D00002078000606D5E868032189048843216A13
:100D10000843E8600020F8BD401002400070004029
:100D200088130000F8B5054653480E460068C00712
:100D3000C00FB0420AD25048016849084900314307
:100D400001600068C007C00FB0426FD128784B4CDB
:100D5000800705D5E068F0218843A9680843E06072
:100D60002878C00752D06868022817D0032818D006
:100D70002168012818D08905002957DAE168890817
:100D800089000143E160FFF7C1FD69680746022958
:100D900012D003291CD0012926D033E02168890311
:100DA000EAE721688901E7E74907E5E7FFF7AEFDD4
:100DB000C11B3348814223D8E0680007800F022816
:100DC000F4D123E0FFF7A2FDC11B2D48814217D8C3
:100DD000E0680007800F0328F4D117E0FFF796FDC5
:100DE000C11B274881420BD8E0680007800F01280B
:100DF000F4D10BE0FFF78AFDC11B2148814201D9E4
:100E00000320F8BDE0680007800FF3D11A4801689D
:100E1000C907C90FB1420BD90168490849003143DC
:100E200001600068C007C00FB04201D00120F8BDCA
:100E30002878400706D5E068072109028843E96859
:100E40000843E0602878000707D5E0680721C90259
:100E500088432969C9000843E06000F03DF8E16873
:100E6000084A0906090F515CC84007490860032079
:100E7000FFF76AFD0020F8BD00200240001002408C
:100E800088130000D827000850010020014800689E
:100E90007047000050010020044805490068C968F7
:100EA000044A4905490F515CC84070475001002071
:100EB00000100240F1270008044805490068C9688D
:100EC000044A8904490F515CC84070475001002012
:100ED00000100240F127000810B5184AD1680C2014
:100EE000084004280BD0082810D00C2810D05068D7
:100EF0000004410F0120C003491C884010BD106848
:100F0000C00601D50E4810BD0E4810BD0E4810BDDC
:100F100088020E4B000F185C0902D368890F491C28
:100F2000DB0301D5084A05E01268D20601D5044A60
:100F300000E0044A5043FFF7DBF810BD0010024008
:100F400000093D000024F40000127A00E8270008A0
:100F5000F8B504460078FE4DC0074AD0E86800079F
:100F6000800F022807D0E8680007800F032809D106
:100F7000E868C00306D5286880033AD56068002871
:100F800073D036E0012062680004824203D12968F0
:100F90000143296011E0052301211B0489049A42C1
:100FA0002A6802D10A432A60F1E782432A602A684C
:100FB00002400092286888432860606800280CD0AE
:100FC000FFF7A4FC064604E0FFF7A0FC801B6428A2
:100FD0007ED828688003F7D50BE0FFF797FC06461C
:100FE00004E0FFF793FC801B6428F1D82868800395
:100FF000F7D42078800741D5E8681F270007800FC5
:101000003F02012807D0E8680007800F032809D1B4
:10101000E868C00306D42868400717D5E0680128AF
:1010200023D113E0E068002817D0296809229143F2
:1010300001432960FFF76AFC064604E0FFF766FCFF
:10104000801B0228C4D828684007F7D56868216942
:10105000B84309020843686010E02868400840006F
:101060002860FFF753FC064605E095E0FFF74EFCCD
:10107000801B0228ACD828684007F7D42078C00627
:1010800072D5E868B34E0007800F0AD0E0690028E7
:101090002868B1495AD008432860FFF737FC074653
:1010A00044E02868800502D5E069002874D0606AB1
:1010B00069683140884212D900F03AFC0028AFD16B
:1010C0006868616AB043084368606868000200E0CD
:1010D000DCE0218C000A0906084368600FE06968BB
:1010E000B143014369606868218C0002000A090667
:1010F00008436860606A00F01BFC002890D1606AB9
:10110000410B0120C003491C8840E96809060A0F09
:101110009249895CC840924908600320FFF714FC9B
:1011200022E0FFF7F3FBC01B02288BD8286880055C
:10113000F7D56868616AB043084368606868218CC5
:101140000002000A0906084368600DE08843286031
:10115000FFF7DCFB064604E0FFF7D8FB801B022804
:1011600088D828688005F7D420787E4E000723D5DC
:1011700060690028306910D0012108433061FFF711
:10118000C5FB074604E0FFF7C1FBC01B02287DD862
:1011900030698007F7D50FE001E140084000306179
:1011A000FFF7B4FB074604E0FFF7B0FBC01B0228C3
:1011B0006CD830698007F7D42078400760D5A86BD9
:1011C0000027C00005D4A86B012109070843A863C4
:1011D000012765480168C90511D4016882151143CA
:1011E0000160FFF793FB009005E0FFF78FFB00998C
:1011F000401A64284AD85C480068C005F5D55648AE
:10120000A268824203D131690143316111E00121B9
:101210008902002A07D005231B029A4203D13269B2
:101220000A433261EFE732698243326130698843B1
:101230003061A06800280ED0FFF768FB009006E040
:10124000FFF764FB0099411A484881421ED8306973
:101250008005F5D50DE0FFF759FB009006E0FFF79C
:1012600055FB0099411A414881420FD830698005E9
:10127000F5D4002F04D0A96B012000078143A96396
:101280002078800630D53A48421400E080E0A16919
:10129000002916D0AB6801210B43AB606B6B0B438D
:1012A0006B63016A11430162FFF730FB064604E0FD
:1012B000FFF72CFB801B02286AD8A8688007F7D5A7
:1012C00012E0A96849084900A960016A91430162D6
:1012D000FFF71CFB064604E0FFF718FB801B022803
:1012E00056D8A8688007F7D4A06A002855D0E968C6
:1012F0000907890F032952D00126360602282868DB
:1013000005D0B0432860FFF701FB044642E0B0433C
:101310002860FFF7FBFA074604E0FFF7F7FAC01B67
:10132000022835D828688001F7D4216BE06AEA6882
:101330000843616BFD231B049A4311430843E86093
:10134000286830432860FFF7E1FA044617E0000000
:101350000010024000E0000000010000D827000853
:10136000500100204010024000700040881300002F
:1013700000000140FFF7CAFA001B022808D82868BD
:101380008001F7D509E0FFF7C1FA001B022801D957
:101390000320F8BD28688001F5D40020F8BD0120A5
:1013A000F8BD0000042204490428086902D09043D3
:1013B000086170471043FBE700E000E07047000061
:1013C000094910B5401E884201D9012010BD074CC3
:1013D00060610321081F00F087FA0020A061072048
:1013E0002061002010BD0000FFFFFF0000E000E0D2
:1013F00010B5FFF7E3FF10BD70B5040005D025461A
:101400006035687A002802D006E0012070BD002017
:101410002872204600F026F82420687220680168AF
:10142000490849000160606A002802D0204600F0A7
:10143000DBFC204600F06EFD0128E7D02068416803
:101440000922D20291434160206881682A22914397
:10145000816020680168012211430160204600F08C
:1014600029FD70BD00B500680D4985B0884215D1D1
:101470000C48416B01229203114341630320400257
:10148000009002200190002002900320039004208D
:101490000490052069460007FFF76CF905B000BD10
:1014A0000038014000100240FFB50746044660378F
:1014B000B87A83B00E46202871D1002E0CD0059842
:1014C000002809D00120A1680003814207D12069CA
:1014D000002804D1F00702D0012007B0F0BD387A0F
:1014E00001285CD0012038720020E0662220B8720A
:1014F000FFF70CFA02902546403505982883059899
:1015000068830122A0681203FF21904204D1206960
:10151000002815D123480AE07F2200280BD00121A2
:101520000907884204D12069002807D03F20A883FA
:10153000A88B019023E02069002801D0AA83F7E757
:10154000A983F5E7688B401E688306980090002207
:1015500020212046029B00F0F5FD002801D0032049
:10156000BBE70120A1680003814202D12069002865
:101570000DD02068416A019801403170761C688B5B
:101580000028DFD12020B87200203872A5E720683B
:10159000406A019908403080B61CF0E7FFE702205E
:1015A0009BE70000FF010000FFB5064604466036D9
:1015B000707A83B00D46202858D1002D0CD00598A4
:1015C000002809D00120A1680003814207D12069C9
:1015D000002804D1E80702D0012007B0F0BD307A1E
:1015E000012843D0012030720020E0662120707273
:1015F000FFF78CF901902746403705983882059807
:10160000788218E0788A401E78820698009000223E
:1016100080212046019B00F095FD002818D1012073
:10162000A1680003814202D12069002812D02168FC
:10163000287888626D1C788A0028E3D1069800908B
:10164000002240212046019B00F07CFD002808D0AC
:101650000320C2E728882168C005C00D8862AD1C40
:10166000E9E72020707200203072B6E70220B4E76C
:10167000FEE7000007480168074A1140C203914293
:1016800007D14168054A51601160006880F30888FD
:1016900008477047004000080000FE2F440100206A
:1016A000F3B50024104F81B02646254639460298EE
:1016B000FEF71EFD019A3030105502910A2138467E
:1016C000641CFEF715FD0746019800192038C07FFD
:1016D000302801D1002E04D0761C6D1C0A2DE5D3D4
:1016E000FEBD0024F9E7000000CA9A3B10B50D4882
:1016F0000B490160012101710B4A82600822C2601E
:10170000417100220261426182610162FEF754FF71
:10171000002803D0482105A000F0A4FF10BD000060
:101720000030024058010020211000002E2E2F53BF
:1017300072632F6372632E630000000030B511489E
:1017400087B0C26A04210A43C262C26A0A40059293
:10175000C16A01242143C162C06A0B4D204005903B
:10176000002220212846FFF7CBF8002120200291FB
:1017700003910090019469462846FEF7FBFF07B0ED
:1017800030BD0000001002400008005010B50D48A8
:101790000B490160E1214902416000218160C16083
:1017A00001618161C1610C22016242614162FFF706
:1017B00023FE002803D0432103A000F053FF10BDF7
:1017C000003801407C0100202E2E2F5372632F75AC
:1017D000736172742E630000F8B528480168284AC6
:1017E000284F914234D1294D27492C462846FEF7EF
:1017F000A7FD21462B26264CF60232462046FEF750
:101800005DFD002804D023A000F0D2F9FFF732FFDD
:10181000244800F0DDF924A000F0CAF900F026F910
:10182000002811D024492046FEF78AFD3246214681
:101830002846FEF743FD6420FEF70EFF002220211C
:101840001E48FFF75DF812E0384600F0C1F9F2E7F4
:1018500000681B4988420DD1384600F0B9F919A03B
:1018600000F0A6F900F050F96420FEF7F5FEFFF74E
:1018700001FFF8BD17A000F09BF9F8BD003F00087C
:1018800078563412682457130000030800A8010892
:10189000004000084241434B5550204641494C45C9
:1018A000440D0A00571368242B444F574E4C4F41A8
:1018B000443A4F4B0D0A0000009801080008005000
:1018C000214365872B55504C4F41443A4F4B0D0AED
:1018D00000000000496E76616C6964206461746187
:1018E0000D0A0000704700008307FF22DB0E9A40BC
:1018F0008907090E994000280BDA0007000F083805
:10190000830808489B001818C36993430B43C361BD
:101910007047830804489B001B18186890430843CD
:101920001860704700ED00E000E400E07047000040
:1019300070B517490023CA681206120F18D18A6BB6
:10194000154CD500134A02D51268224009E08E6B6F
:1019500001252D072E438E6312688E6B2240AE4305
:101960008E63A24204D103218903884200D101235E
:101970000A48016849084900194301600068C00726
:10198000C00F984201D0012070BD002070BD000042
:1019900000100240007000400018000000200240CB
:1019A000F7B582B000240C600F4606460122694656
:1019B0002B48049BFFF778FD050020D1684600788E
:1019C000182820D006DC01280BD002280BD00428D0
:1019D00004D104E0412828D0612826D001253070A8
:1019E0000DE0802401E00124A4023070221DB11C0E
:1019F0001B48049BFFF758FD050018D000243C60ED
:101A0000284605B0F0BD012269461548049BFFF742
:101A10004BFD002803D168460078182803D068469B
:101A200001250078DBE70224D9E70225D7E7F07823
:101A3000B178FF22504081420ED1301901794079AE
:101A40000902401801902246311D0648FEF783FD29
:101A5000014601988142D2D000240125CFE7000041
:101A60007C010020580100207047000038B500209C
:101A70000090684600F098FB04000AD0052C0AD0BC
:101A8000042C0AD0022C0AD006A000F091F82046BF
:101A900038BD09A0F9E70DA0F7E711A0F5E715A0FB
:101AA000F3E700002B444F574E4C4F41443A454D0D
:101AB0005054590D0A0000002B444F574E4C4F41D3
:101AC000443A535543434553530D0A002B444F5753
:101AD0004E4C4F41443A4C494D49540D0A000000C8
:101AE0002B444F574E4C4F41443A4641494C454494
:101AF0000D0A00002B444F574E4C4F41443A41428F
:101B00004F525445440D0A0008B500216846017043
:101B10004B1E012269460C48FFF7C6FC6846007858
:101B200043280FD133220120D20208A1C00600F0C1
:101B300007FC69460870002801D00AA000E00EA04A
:101B400000F036F808BD00007C0100204C305F4CEE
:101B50006F52614D61634669726D776172652E6285
:101B6000696E00002B55504C4F41443A4641494C58
:101B700045440D0A000000002B55504C4F41443A9B
:101B8000535543434553530D0A00000001B5074820
:101B9000417AA02901D12021417204486423012205
:101BA00069466038FFF700FD08BD0000DC01002039
:101BB00010B5002201E0521C92B2815C0029FAD1DA
:101BC000014664230148FFF7EFFC10BD7C010020B3
:101BD0007FB5002504460395FEF7AEFD0095012074
:101BE0000C4D029003A901956846FEF741FD0028BF
:101BF00002D009A0FFF7DCFF224629460220FEF7AB
:101C00007DFD002802D00AA0FFF7D2FFFEF76CFD91
:101C10007FBD0000003F0008464C415348204572FC
:101C2000617365204661696C2E2E2E0D0A0000003E
:101C3000464C415348205772697465204661696C6F
:101C40002E2E2E0D0A000000F0B5054600242B783C
:101C500020462246302B2CD16B78782B01D0582B84
:101C600027D102241AE01E46413E052E06D91F4602
:101C7000613F052F02D93137092F13D81F461201B2
:101C8000303F092F01D83B4604E0052E01D8373BF1
:101C900000E0573BD218641C0B2C04D22B5D002BA8
:101CA000E1D103E000202B5D002B01D101200A606F
:101CB000F0BD2B5D002B0ED06B2B01D04B2B03D135
:101CC000002C01D0920206E06D2B01D04D2B05D1E6
:101CD000002C03D0120501200A6007E01E46303EAA
:101CE000092E09D80A267243303A9A18641C0B2C24
:101CF000DED20128DDD1F0BD0020F0BD10B5FEF729
:101D00000BFEFFF775FB10BD30B521489DB0016893
:101D10000322D2029143C21489180160022000906C
:101D200001250A9000240395400510210D900B9485
:101D30000C9404916846FFF70BF9002800D0FEE7E9
:101D40000F200E9003200F901094119401211294F3
:101D50000EA8FEF7E7FF002800D0FEE713A81395B2
:101D60001694FEF709FF002800D0FEE7FFF78EF873
:101D70007D21C900FEF7BCF9FFF722FB0420FFF725
:101D800011FB00221146501EFEF70EFE1DB030BDA5
:101D90000070004010480168821511430160C1685D
:101DA0000E4A1140C16001680D4A1140016081680E
:101DB0004908490081600168012292049143016051
:101DC000C168FD2212049143C160002101610549EF
:101DD000C003886070470000001002400C40FF887C
:101DE000F6FFF6FE00ED00E010B5818CC90707D0C4
:101DF00001684A6801235B049A43836A1A434A6074
:101E0000818C890707D501684A6801231B049A431E
:101E1000C36A1A434A60818C490707D501684A683A
:101E200001239B049A43036B1A434A60818C090780
:101E300007D501684A680123DB039A43436B1A43C1
:101E40004A60818CC90607D50268916801231B038B
:101E50009943836B19439160818C890607D501688A
:101E60008A6801235B039A43C36B1A438A60818C9F
:101E7000490612D503685A6801210905046C8A4392
:101E800022435A60026C8A4207D1026851680323D8
:101E90005B059943436C19435160818C090607D552
:101EA00001684A680123DB04806C9A4302434A605C
:101EB00010BD0000F8B500260446C666FEF726FDF4
:101EC000054620680068124F000709D501212B46FE
:101ED000002249052046009700F034F900280DD172
:101EE0002068006840070BD501212B460022890598
:101EF0002046009700F026F9002801D00320F8BD05
:101F0000202060346072A07226720020F8BD0000AC
:101F1000FFFFFF01FEB50446016880682269E3699E
:101F200010436269102700261A4310430A68354699
:101F3000784B1A4002430A6020684168032212036A
:101F40009143E26811434160734A2168A06991425C
:101F500001D0226A10438A680B231B029A43024372
:101F60008A606E4A20686E4990420CD1C86880072A
:101F7000800F06D0012843D002283FD0032826D165
:101F800024E0012723E0674A90420AD1C8680C2167
:101F9000084031D0042833D008282FD00C2816D17F
:101FA00014E0614A904227D0604A904224D05A4AB5
:101FB00090420CD1C9680320800201401CD010154A
:101FC000091A1DD0091A19D0814200D10827022010
:101FD000FEF7EEFC0190504B514922684039D8136E
:101FE00000929A4235D1002F0CD0022F0DD0042F31
:101FF00012D0082F1CD113E00027E8E70227E6E7FC
:102000000427E4E7FEF748FF08E00868C00601D5AA
:10201000474805E0474803E0FEF75EFF002873D01D
:10202000626851005118814202D81103814201D2E5
:10203000012569E0010E06025008002330185941BD
:10204000FEF76CF8032109023B4A411A914259D923
:10205000EEE7E26982422DD13B0000F00FFB09065A
:10206000080B24192424241F2400019812E0FEF7F1
:1020700023FF0FE008686168C00602D548082F4AB0
:1020800001E02F4A48088018FEF732F886B20BE0CC
:10209000FEF722FF616840004A08F4E76168012208
:1020A00048081204EFE70125310909013007400F04
:1020B000084327E03B0000F0E1FA09070A0D061D7E
:1020C000060606290600B3E7FEF7E6FE14E0FEF773
:1020D000F3FE11E008686168C00602D54A0814489A
:1020E00001E014484A081018FEF702F881B200987F
:1020F000C16009E0FEF7F0FE61684A088018FDF74C
:10210000F7FF80B22168C8602846FEBD61684A08B2
:10211000E9E70000F369FFEF0048004000380140A4
:102120004010024000440040004C0040005000407D
:1021300000093D000024F400FFFC0F0000127A00AB
:102140000048E801FFB581B017460E4604460A9DD7
:102150001DE0681C1BD0002D05D0FEF7D7FB0499AD
:10216000401AA84213D920680168FF22A132914386
:10217000016020688168490849008160202060343E
:102180006072A07200202072032005B0F0BD2068AC
:10219000C1693046884304D00020B842D9D000201D
:1021A000F3E70120F9E70000F1B5002790B05C48A3
:1021B0003E463C460C970090AAE0002005460D9054
:1021C000A2E0584A08A95848FFF7EAFB00280CD0BB
:1021D00002287DD00C98002800D0761C052E78D9D6
:1021E0001820FFF7D3FC18208CE008980026002860
:1021F0000DD0022806D04C490D9A8B7893420BD013
:1022000015207FE00620FFF7C1FC02247CE00620B9
:10221000FFF7BCFC012577E0002A14D08208091DD5
:102220000098FEF7B7F800285AD01820FFF7AEFC48
:102230001820FFF7ABFC04240D98401CC0B20D9091
:1022400001200C9060E00879002843D00020374B33
:10225000091D02E01A54401C491C0A78002A01D0CA
:102260004028F7D300221A54104604AB01E01A5458
:10227000401C491C0A78202A01D01028F7D30021DD
:1022800019540EA91846FFF7DFFC1098284900687A
:10229000884211D918206946087201242405234672
:1022A000012202A92348FFF77FF92346012202A950
:1022B0002048FFF779F905241F491948FEF740F82F
:1022C00010980E9901600620FFF760FC432010E093
:1022D00012E016E00620FFF759FC01252F4613E017
:1022E00020211648FEF708FB089900984018009036
:1022F0000620FFF74BFC9FE71820FFF747FC18204C
:1023000081E74320FFF742FC2846204300D158E7ED
:102310003846204300D150E7204611B0F0BD000000
:1023200000400008102700002C020020EC010020D3
:10233000019801007C01002000980108000800506D
:10234000F7B500208EB00B90054602900120C14EDB
:102350000A900027012210987270B770FF22F27065
:102360003C4602E033191A71641C0A5D002A01D050
:10237000402CF7D3002132191171014607A8FFF74D
:102380008FF907A8641D02E03155641C7F1CC15DF4
:102390000029F9D102E000203055641C842CFAD3C6
:1023A00024E00126AB4C360533468322611CAA4843
:1023B000FFF7FAF88022211DA848FEF7CCF8044662
:1023C0000004000EFFF7E2FBE0B2FFF7DFFB33464D
:1023D000012203A9A048FFF767F800280DD00B9849
:1023E000401C0B900B98052800D301250298284328
:1023F000D7D00E980690109C8FE06846007B062888
:102400001FD01828EED13346012203A99248FFF7C6
:102410004BF80028E6D16846007B1828E2D102205C
:10242000FEF71AF98C49086883690822134383610F
:1024300008688369102423438361086802620225C7
:10244000D0E701200290CDE720218548FEF754FA1D
:102450000A9801237F4A9B020699C0B226469C42F5
:1024600001D31F4600E08027BE4200D33E46012331
:102470009B02B4469F4201D1022300E00123537026
:102480009070C043D0700423301D03E00E78D65402
:10249000491C5B1C8342F9D36046BC4507D81A210E
:1024A000001D3F1D01E01154401CB842FBD3002029
:1024B00069460290087307462CE00126B602B44232
:1024C00000D2802663490123F21C1B05491C624887
:1024D000FFF76AF85F493246091D6048FEF73BF88E
:1024E00001900004000EFFF751FB0198C0B2FFF706
:1024F0004DFB01231B05012203A95748FEF7D4FF1A
:10250000002803D16846007B062810D07F1C052FC9
:1025100000D3012502982843CFD0002C01D0002DF4
:1025200092D00024684626460473274623E0012003
:1025300002900698B4420AD9801906900A98A41B02
:10254000662802D0401C0A90E1E70525DFE78019E4
:1025500000240690DBE70420FFF718FB01231B058E
:10256000012203A93C48FEF79FFF002809D07F1CE9
:10257000052F00D3012520462843ECD0002D27D07D
:1025800064E06846007B062820D01828F0D101239B
:102590001B05012203A93048FEF786FF0028E7D17A
:1025A0006846007B1828E3D10220FEF755F82A4838
:1025B0000268936908210B439361026893691025AF
:1025C0002B439361006801620225D1E70124CFE724
:1025D000204C01206070A670FF20E070042026547B
:1025E000401CC0B28428FAD3012636053346832224
:1025F000611C1948FEF7D8FF8022211D1748FDF7FE
:10260000AAFF04460004000EFFF7C0FAE0B2FFF78D
:10261000BDFA3346012203A90F48FEF745FF002803
:1026200014D16846007B182810D10220FEF714F858
:1026300009480268936908210B4393610268946911
:1026400010231C439461006801620225284611B0E2
:10265000F0BD00002C0200207C0100205801002069
:1026600000080050FEE7000010B5024A024900F0E1
:1026700021F810BDD52600085401002030B474465E
:10268000641E2578641CAB4200D21D46635D5B006E
:10269000E31830BC184702E008C8121F08C1002A1E
:1026A000FAD170477047002001E001C1121F002AD3
:1026B000FBD17047F8B516460F460446002503E0E7
:1026C0003946B047641C6D1C20780028F8D1284694
:1026D000F8BD000013B56423012269460248FEF7E5
:1026E00063FF00981CBD00007C010020FEF71CF970
:1026F000FFF70AFBFFF722F8FEF7F8FFFDF73CFEB5
:10270000FFF744F8224C20682249234F234D244EE2
:10271000884206D020682349884202D02068B0420F
:102720001ED121A0FFF744FA012220212248FEF702
:10273000E7F82068B04210D139462846FDF700FE80
:102740002B22D20229461D48FDF7B8FD1C48FFF791
:102750003FFA6420FDF780FF16E0FFF73DF815E033
:1027600018A0FFF725FA20681A4988420CD139468B
:102770002846FDF7E5FD2B22D20229460F48FDF73A
:102780009DFD0F48FFF724FAFEF774FFFEE70000F7
:10279000003F0008785634120098010800400008F5
:1027A0003175428621436587626F6F746C6F616417
:1027B00065720D0A000000000008005000A8010822
:1027C000682457136170706C69636174696F6E0D72
:1027D0000A000000571368240000000000000000F9
:1027E0000102030406070809030406080C10182058
:1027F0003000000000010203040000002C28000843
:1028000000000020440100009626000870290008FE
:1028100044010020140000009626000884290008C6
:1028200058010020F8240000A626000810B5214A0F
:1028300000219069C305204804D54169022319434A
:102840004161911593699B0505D543690124234393
:1028500043616302194393695B0505D54369082405
:1028600023434361E301194393691B0505D543697C
:102870000424234343616302194393699B0405D5F0
:1028800043691024234343616302194393699B0303
:1028900004D5446920231C43446119439369DB0335
:1028A00005D54369402423434361A002014391615C
:1028B000002010BD002002403406002010B516494B
:1028C00000E0401E8A69D20702D00028F9D11FE03B
:1028D00000281DD08869800701D502208861886999
:1028E000C00511D4886980050ED4886940050BD4D1
:1028F0008869000508D48869800405D48869800344
:1029000002D48869C00305D5FFF790FF012010BDF0
:10291000032010BD002010BD00200240F8B507467E
:102920000E4600251048FFF7C9FF00281BD10F4CA9
:102930006068211508436060606808210843606092
:1029400072B601CE38606D1C102DFAD362B60648FF
:10295000FFF7B4FF6168082291436160626801215A
:1029600089028A436260F8BD50C300000020024023
:1029700000000000000000000000000080841E0035
:042980000000000053
:04000005080000C12E
:00000001FF
