:020000040800F2
:10000000B00900200901000837160008651400082F
:10001000351600085B010008531E000800000000B0
:100020000000000000000000000000009917000818
:10003000850100080000000059160008251A000874
:100040002301000823010008230100082301000800
:1000500023010008230100082301000823010008F0
:1000600023010008230100082301000823010008E0
:1000700023010008230100082301000823010008D0
:1000800023010008230100082301000823010008C0
:1000900023010008230100082301000823010008B0
:1000A00000000000230100082301000823010008CC
:1000B0002301000823010008230100082301000890
:1000C0002301000823010008230100082301000880
:1000D0002301000823010008230100082301000870
:1000E0002301000823010008230100082301000860
:1000F00023010008DFF80CD000F018F80048004792
:1001000035230008B009002006488047064800470C
:10011000FEE7FEE7FEE7FEE7FEE7FEE7FEE7FEE7B7
:10012000FEE7FEE7B11A0008F5000008064C074D8F
:1001300006E0E06840F0010394E8070098471034B7
:10014000AC42F6D3FFF7DAFF482400087824000811
:1001500040F2810CC2F2000C6047FEE730B5044665
:100160000020651804E000BF14F8011B01F061FED7
:10017000AC42F9D3002101F05CFEBDE83040002123
:1001800001F057BE704700002DE9F74FADF5806DC7
:100190004FF48064164605460027E8464FF4004AAF
:1001A000DFF854B04FEA94091DE004CD41F8202057
:1001B00010F10100B0EB940FF7D34A466946DDF821
:1001C000040400F04FF820B10CA002F07FF80327E0
:1001D0000DE05146584600F03FFADDF80404361BA6
:1001E0002044CDF8040416B100204146E2E70DF2A8
:1001F0000C4D3846BDE8F08F00000240577269741C
:100200006520666C617368206572726F72212121AE
:100210000D0A00007FB500260D460446009600F04A
:1002200033F9CDE90164AC4209D2281B000A0390DE
:10023000694601A800F0C0F808B10120009000F064
:10024000FBF8009804B070BD10B500F01DF904492A
:1002500040F602700860BDE8104000F0EDB8000004
:10026000183C02402DE9F04117460C460646002591
:1002700000F00AF904EB870714E021463046FFF747
:1002800067FF08B103250FE056F8201054F820202E
:10029000914201D0022502E0401C2028F4D3803492
:1002A00080360DB9A742E8D800F0C6F82846BDE868
:1002B000F0810000074900224A6107490B6843F4B6
:1002C00000730B600B6843F008030B6020F0FF0025
:1002D0000260704798050020043C02400F4A00214C
:1002E0001068C3050E4804D5416941F0020141611F
:1002F000911513689B0505D5436943F001034361DC
:1003000041F4007113681B0505D5436943F00403EC
:10031000436141F40061116070470000183C0240E5
:100320009805002070B5054600F0A0F90646114C6E
:1003300009E0681C07D025B100F098F9801BA8429D
:1003400001D9032070BD2068C007F2D12068800762
:1003500001D5022020602068C00505D42068000572
:1003600002D42068800503D5FFF7B8FF012070BDD7
:10037000002070BD183C024010B5040002D0607926
:1003800010B106E0012010BD00202071204600F0D1
:1003900006F80220607101206071002010BD7047D6
:1003A00031B500F063F9044600F060F90099001BD4
:1003B0008842F9D338BD00002DE9F0471C4E0546B0
:1003C0000F46307C012808D0012030744CF25038A0
:1003D0004046FFF7A7FF18B127E00220BDE8F087ED
:1003E0004FF0FF313960C146DFF848806C6816E095
:1003F0002046FFF75FFF4846FFF794FFD8F800203C
:1004000022F00802C8F80020D8F8002022F4007278
:10041000C8F8002008B13C6007E004F58074D5E915
:10042000011201EB0221A142E2D800213174D5E78B
:1004300098050020043C02400348016841F0020195
:100440000160002070470000043C02402DE9F041AB
:100450000C4C16460F46207C012809D00120207440
:100460004CF250384046FFF75DFF002518B107E019
:100470000220BDE8F08165613E604046FFF752FF13
:100480002574F6E7980500200B480168890710D508
:100490000068C00705D008480849083001600849CD
:1004A0000160054807490C300160074901600020E0
:1004B0007047012070470000043C0240EFCDAB893B
:1004C00005040302BFAE9D8C161514132DE9F84FD9
:1004D000DFF864B100234FF0010C4FF0030A4FF036
:1004E0000F090BF1040EA0E00CFA03F6324072D0B3
:1004F0004C68022C01D0122C0ED1DC0800EB8408D1
:10050000D8F820405D07EF0E09FA07F5AC430D69F6
:10051000BD402543C8F8205007685D0091F804806D
:100520000AFA05F408F00308A74308FA05F848EAB0
:100530000708C0F800804F68012F05D0022F03D0B4
:10054000112F01D0122F11D18768D1F80C80A74349
:1005500008FA05F848EA0708C0F808804768B74372
:100560000E79C6F300169E403E434660C668A64319
:100570008C68AC403443C4604C68E40054D52F4CC4
:10058000256845F001052560246823F0030504F083
:10059000010400942A4C2544AF689C07240F09FAF3
:1005A00004F6B743274EB04201D1002615E0264E8F
:1005B000B04201D1012610E0244EB04201D1022602
:1005C0000BE0234EB04201D1032606E0214EB0429B
:1005D00002D1042601E027E00526A6403E43AE6096
:1005E000DBF800405D464E689443F60300D51443A3
:1005F0002C60DEF8004075464E689443B60300D583
:1006000014432C600C4D08352C684E689443F60258
:1006100000D514432C60084D0C352C684E6894436B
:10062000B60200D514432C605B1C0A6832FA03F44E
:100630007FF45AAFBDE8F88F000401402038024033
:100640000000014000000240000402400008024097
:10065000000C02400010024042694A40426170476B
:100660000AB1816170470904FBE700000148006896
:10067000704700000401002002480168491C016025
:10068000704700000401002010B5032000F084F83A
:10069000002000F005F800F017F8002010BD000061
:1006A00010B5044607484FF47A710068B0FBF1F0CA
:1006B00000F09FFD00222146501E00F04DF8002062
:1006C00010BD000008010020224808B5016841F073
:1006D00000410160016801F000410091011F0A68BA
:1006E00042F001020A60096801F00101009101680D
:1006F00041F080510160006800F0805000900320BC
:1007000000F04AF8002211466FF00B0000F024F8C8
:10071000002211466FF00A0000F01EF80022114678
:100720006FF0090000F018F800221146501F00F089
:1007300013F800221146101F00F00EF80022114697
:10074000901E00F009F80022BDE808401146501E36
:1007500000F002B824380240F0B40E4B1B680C467F
:10076000C3F30223C3F10705042D00D90425191D85
:10077000072901D2002300E0DB1E012606FA05F15D
:10078000491E214099409E40761E16403143F0BCE0
:1007900000F052BF0CED00E0064900F007020868C7
:1007A0004FF6FF03184040EA0220034A1043086056
:1007B000704700000CED00E00000FA052DE9F0475D
:1007C000DFF8BC8105460E46D8F8000000F00100B5
:1007D000B04214D2012E05D1D8F8001041F0040126
:1007E000C8F80010D8F8001021F001013143C8F812
:1007F0000010D8F8000000F00100B04271D1287854
:10080000604C800705D52068A96820F0F0000843F7
:1008100020602878C00771D05A4A5A4B6968012075
:10082000083A2C33022910D003292ED001292FD0C9
:100830005FEA402797FAA7FCBCFA8CFC4CF0200C2E
:100840005FEA5C1C04D0126803E04FF40037F1E764
:100850001A6897FAA7F3B3FA83F303F01F039840DB
:10086000024262D0206820F0030008432060FFF7B6
:10087000FDFE6968074641F28830022910D003293D
:100880001CD00129814626D034E04FF00077D1E713
:100890000227CFE7FFF7EAFEC11B494501D926E051
:1008A00081462068C0F381000228F3D126E000BF12
:1008B000FFF7DCFEC11B494501D918E081462068DD
:1008C000C0F381000328F3D118E000BFFFF7CEFE8C
:1008D000C11B49450BD82068C0F381000128F5D120
:1008E0000CE022E0FFF7C2FEC11B494502D90320FC
:1008F000BDE8F087206810F00C0FF3D1D8F8001095
:10090000404601F00101B14211D9012E03D1016825
:1009100041F004010160016821F0010131430160EF
:10092000006800F00100B04201D00120E0E7287823
:10093000400705D52068E96820F4E060084320609E
:100940002878000706D52068296920F4605040EA1D
:10095000C100206000F052F82168F02292FAA2F261
:1009600001F0F001B2FA82F2D140074A515CC8406E
:10097000064908600020FFF793FE0020B8E700005A
:10098000003C0240083802402D24000808010020E5
:100990000148006870470000080100200848094924
:1009A000006809684FF4E06292FAA2F201F4E06193
:1009B000B2FA82F2D140044A515CC840704700004C
:1009C00008010020083802403D2400080848094971
:1009D000006809684FF4605292FAA2F201F4605183
:1009E000B2FA82F2D140044A515CC840704700001C
:1009F00008010020083802403D2400081E4A116802
:100A000001F00C00042813D0082813D00C2813D0B0
:100A1000101F006800F460414FF4604090FAA0F0AD
:100A2000B0FA80F0C1404FF40040491C8840704744
:100A300012487047124870474FF4701393FAA3F3AB
:100A400001F47010B3FA83F3D8400E4B01F4400167
:100A50001268185C4FF4400393FAA3F3B3FA83F3DC
:100A6000D940491CD20301D5054A00E0034A50434E
:100A7000B0FBF1F070470000083802400024F40099
:100A8000001BB700242400082DE9F84F0746007822
:100A9000FB4EFC4DC0074FF0010428D0F848083049
:100AA00001684FF40038C1F38101022907D00168C1
:100AB000C1F3810103291BD10068C00318D598FA3E
:100AC000A8F0B0FA80F040F02000400901D0306872
:100AD00000E0286898FAA8F1B1FA81F101F01F014D
:100AE00004FA01F108425CD0786800287BD058E015
:100AF000786801280AD008B1052811D0306820F4A0
:100B000080303060306820F4802002E0306840F4AB
:100B100080303060786828B3FFF7A8FD81460BE08D
:100B2000306840F480203060F0E700BFFFF79EFDA2
:100B3000A0EB0900642872D898FAA8F0B0FA80F007
:100B400040F02000400901D0306800E0286898FAA1
:100B5000A8F1B1FA81F101F01F0104FA01F1084294
:100B6000E4D01EE0FFF782FD814605E0FFF77EFD41
:100B7000A0EB09006428DED898FAA8F0B0FA80F05B
:100B800040F02000400901D0306800E0286898FA61
:100B9000A8F1B1FA81F101F01F0104FA01F1084254
:100BA000E4D13878DFF8E08280074FF0000B4FF097
:100BB00002095FD5B24808300168C1F381010129FB
:100BC00007D00168C1F3810103291CD10068C0036B
:100BD00019D499FAA9F0B0FA80F040F02000400949
:100BE00002D0306801E086E0286899FAA9F1B1FAEC
:100BF00081F101F01F0104FA01F108422BD0F868DD
:100C0000012878D127E0F868A8B394FAA4F0B0FAE4
:100C100080F048F82040FFF729FD824606E066E1B3
:100C2000FFF724FDA0EB0A00022884D899FAA9F165
:100C3000B1FA81F141F02001490901D0316800E0A9
:100C4000296899FAA9F0B0FA80F000F01F0004FAC0
:100C500000F00142E4D08A48001D01684FF4F853C7
:100C600093FAA3F33A69B3FA83F321F4F8519A4063
:100C70001143016025E0FFE794FAA4F1B1FA81F194
:100C800048F821B0FFF7F2FC824605E0FFF7EEFCE2
:100C9000A0EB0A000228C8D899FAA9F0B0FA80F0AF
:100CA00040F02000400901D0306800E0286899FA3F
:100CB000A9F1B1FA81F101F01F0104FA01F1084232
:100CC000E4D138784FF4007AC0067CD56C480830FF
:100CD000006810F00C0F0FD0B9694FF48070002934
:100CE00072D090FAA0F0B0FA80F048F82040FFF7F8
:100CF000BDFC00907EE087E09AFAAAF0B0FA80F09E
:100D000040F02000400901D0306800E028689AFADD
:100D1000AAF1B1FA81F101F01F0104FA01F10842D0
:100D200002D0B86900286FD05548396A001D0068A4
:100D300000F4604081421AD9084600F08FFC002878
:100D400062D14F48001D01683A6A21F460411143A5
:100D5000016001684FF07F4393FAA3F3FA69B3FA95
:100D600083F321F07F419A401143016018E0444829
:100D7000001D026822F460420A43026001684FF0DD
:100D80007F4393FAA3F3FA69B3FA83F321F07F4127
:100D90009A4011430160386A00F060FC0028CFD10E
:100DA0004FF4604191FAA1F1386AB1FA81F1C8407B
:100DB0004FF40041401C8140314808300068F02267
:100DC00000F0F00001E070E040E092FAA2F2B2FA26
:100DD00082F2D0402D4A105CC1402D4801600020B5
:100DE000FFF75EFC61E000BFFFF740FC0099401A8E
:100DF00002287CD89AFAAAF0B0FA80F040F02000DD
:100E0000400902D0306801E0BCE128689AFAAAF1F2
:100E1000B1FA81F101F01F0104FA01F10842E3D0B7
:100E20001748001D01683A6A21F4604111430160CE
:100E300001684FF07F4393FAA3F3FA69B3FA83F39F
:100E400021F07F419A40114301602EE090FAA0F01A
:100E5000B0FA80F048F820B0FFF708FC009005E0F9
:100E6000FFF704FC0099401A0228C2D89AFAAAF0A7
:100E7000B0FA80F040F0200040090BD030680AE062
:100E80000038024034380240000047422D24000858
:100E90000801002028689AFAAAF1B1FA81F101F05C
:100EA0001F0104FA01F10842DAD13878000753D55E
:100EB000786948B394FAA4F0B0FA80F008EB8000A7
:100EC000C0F88046FFF7D2FB009005E0FFF7CEFBAD
:100ED0000099401A02288CD899FAA9F0B0FA80F04B
:100EE00040F04000B4EB501F02D1306801E08EE0CA
:100EF000286899FAA9F1B1FA81F101F01F0104FA09
:100F000001F21042E2D027E094FAA4F1B1FA81F1A3
:100F100008EB8101C1F880B6FFF7A8FB009005E05F
:100F2000FFF7A4FB0099401A022870D899FAA9F09B
:100F3000B0FA80F040F04000B4EB501F01D13068AF
:100F400000E0286899FAA9F1B1FA81F101F01F01D6
:100F500004FA01F21042E3D1387840077BD59B4870
:100F60004FF000090068C0000AD49848016841F0B9
:100F70008051016000684FF0010900F0805000903E
:100F800093480168C90511D4016841F4807101607A
:100F9000FFF76CFB009005E0FFF768FB0099401A33
:100FA000642834D88A480068C005F5D5B868012897
:100FB0000AD008B1052811D0286820F48070286074
:100FC000286820F4806002E0286840F4807028607F
:100FD000B86848B3FFF74AFB00900DE0286840F47A
:100FE00080602860F0E700BFFFF740FB0099411ADE
:100FF00041F2883081420AD89AFAAAF0B0FA80F019
:1010000040F04000B4EB501F02D1306801E095E0A1
:1010100028689AFAAAF1B1FA81F101F01F0104FAE5
:1010200001F21042E0D022E0FFF720FB009007E041
:10103000FFF71CFB0099411A41F2883081427DD8AC
:101040009AFAAAF0B0FA80F040F04000B4EB501FDA
:1010500002D1306801E012E028689AFAAAF1B1FAE8
:1010600081F101F01F0104FA01F21042E0D1B9F15F
:10107000000F04D05548016821F080510160786A62
:10108000E8B3DFF84891A9F11C09D9F80010C1F3C1
:101090008101032976D002284FF080714FF0007A49
:1010A00058460BD091FAA1F1B1FA81F148F821002C
:1010B000FFF7DCFAB046074656466DE04FF0807108
:1010C00091FAA1F1B1FA81F18A0042495050FFF73B
:1010D000CDFAB3468046564606E000BFFFF7C6FA93
:1010E000A0EB0800022854D896FAA6F0B0FA80F0D7
:1010F00040F02000400903D0DBF8000001E061E08F
:10110000286896FAA6F1B1FA81F101F01F0104FAFC
:1011100001F10842E2D1D7E90A103A6BD9F8003060
:10112000014323F47D031A431143C9F800104FF023
:10113000807090FAA0F0B0FA80F000E029E0810021
:1011400024480C50FFF792FA074604E0FFF78EFAA6
:10115000C01B02281DD896FAA6F0B0FA80F040F025
:101160002000400902D0DBF8000000E0286896FA71
:10117000A6F1B1FA81F101F01F0104FA01F1084270
:10118000E4D01FE020E000BFFFF770FAC01B022888
:1011900002D90320BDE8F88F96FAA6F0B0FA80F0E5
:1011A00040F02000400902D0D8F8000000E0286894
:1011B00096FAA6F1B1FA81F101F01F0104FA01F1EA
:1011C0000842E1D10020E5E70120E3E724380240AE
:1011D00000700040000047424FF0E02104280869F9
:1011E00003D020F004000861704740F00400FAE7E3
:1011F000704710B5401EB0F1807F01D3012010BDB3
:101200004FF0E02460610F21601700F015FA002014
:10121000A06107202061002010BD10B5FFF7E8FF96
:1012200010BD70B5040004D094F83900002510B149
:1012300006E0012070BD84F83850204600F020F808
:10124000022084F839002068C16821F40051C1608F
:10125000204600F055FC2068016921F490410161AD
:101260002068416921F02A0141612068C16841F488
:101270000051C160E563012084F83900002070BD91
:1012800000B500680E4987B0884217D10D48016843
:1012900041F4804101600068694600F48040059097
:1012A0004FF4C060009002200190012002900320C2
:1012B0000390072004900448FFF708F907B000BD29
:1012C0000038014020380240000002402DE9F0477C
:1012D000044690F8390099460D46012801D012289D
:1012E00058D12DB322B394F83800012852D00126EA
:1012F00084F838600027E76394F8390012281AD080
:101300005FF0220084F83900A285E2854FF480580E
:10131000E08D4B46401EE085A0684FF0000240453E
:101320004FF02001204616D100F03AFDB0B904E09C
:101330000120BDE8F0873220E4E72069002820681A
:10134000406803D0C1B225F8011B12E0C0F30801C8
:1013500025F8021B0DE000F023FD08B10320E8E7AB
:10136000206900282068406801D000F07F0005F85F
:10137000010BE08D0028CBD194F83900322805D03C
:1013800084F8396084F838700020D2E7122084F89D
:101390003900F7E70220CCE72DE9F047044690F842
:1013A000390099460D46012801D0222858D12DB385
:1013B00022B394F83800012852D0012684F838600E
:1013C0000027E76394F8390022281AD05FF0120052
:1013D00084F83900A284E2844FF48058E08C4B46B4
:1013E000401EE084A0684FF0000240454FF08001AD
:1013F000204613D100F0D4FC08BB04E00120BDE876
:10140000F0873220E4E728882168C0F308004860AC
:10141000206908B16D1C08E0AD1C06E000F0C0FCBE
:1014200068B9216815F8010B4860E08C0028D5D117
:101430004B4600224021204600F0B2FC08B10320B8
:10144000DDE794F83900322806D084F8396000BF0F
:1014500084F838700020D2E7222084F83900F7E7BA
:101460000220CCE7FEE7000007480168074A114068
:10147000B1F1005F07D14168054A51601160006811
:1014800080F3088808477047004000080000FE2FDE
:10149000F4000020F0B500220D4B154614460A2733
:1014A000B1FBF3F630368654B1FBF3F603FB1611AD
:1014B000B3FBF7F3521C861816F8016C302E00D1DE
:1014C00025B16D1C641C0A2CEAD3F0BD0022F9E79B
:1014D00000CA9A3B30B50F4887B0016841F001015E
:1014E000016000680C4D00F001004FF400440590CD
:1014F000002221462846FFF7B3F80120CDE900403D
:10150000002002900320039069462846FEF7DEFF84
:1015100007B030BD1C38024000000240174808B533
:10152000154901604FF4E1314160002181600C22D6
:10153000C160C0E904128161C161FFF772FE18B198
:1015400042210FA000F0C0FE1148016841F4805113
:1015500001600068104900F4805000900D48086058
:101560000846FEF709FF002805D0BDE808404A21DB
:1015700003A000F0A9BE08BD003801401001002002
:101580002E2E2F5372632F75736172742E630000B9
:101590001C38024000300240FC000020154910B504
:1015A0000868154A154C90420AD115A000F096F92A
:1015B00000F0F4F800281BD1204600F09DF90BE064
:1015C0000868134988420ED1204600F095F911A011
:1015D00000F084F900F030F96420FEF7E1FEBDE888
:1015E0001040FFF741BFBDE810400EA000F076B9F3
:1015F00010BD0000003F00087856341268245713CD
:101600002B444F574E4C4F41443A4F4B0D0A00006C
:10161000214365872B55504C4F41443A4F4B0D0A9F
:1016200000000000496E76616C6964206461746139
:101630000D0A0000FEE770470907090E002806DAC8
:1016400000F00F0000F1E02080F8141D704700F159
:10165000E02080F8001470477047000038B51C493E
:10166000002309681B4A11F0F00F23D118491C31DF
:101670000C68E500184C03D5216801F4C0540EE055
:101680000D6845F080550D600D6805F0805500959A
:1016900024680D6804F4C05425F080550D60B4F53D
:1016A000C05F07D1B0F5404F04D11068012340F06E
:1016B00004001060106820F00100184310601068EA
:1016C00000F00100984201D0012038BD002038BD53
:1016D00008380240003C0240007000402DE9F84309
:1016E00000240F460646904613460C6001226946C8
:1016F0002848FFF7EBFD050020D19DF800001828D1
:1017000020D006DC01280BD002280BD0042804D1FD
:1017100004E0412827D0612825D0012530700DE054
:10172000802401E04FF480643070221D4346B11CD8
:101730001848FFF7CBFD050017D0002428463C6071
:10174000BDE8F8834346012269461248FFF7BEFD13
:1017500018B99DF80000182803D001259DF8000055
:10176000DCE70224DAE70225D8E7F178B07881F0E7
:10177000FF0188420AD130190179407900EB012834
:101780002146301DFEF7EAFC4045D7D00024012554
:10179000D4E70000100100207047000038B5002099
:1017A0000090684600F056FB04000BD0052C0BD0CF
:1017B000042C0BD0022C0BD006A000BF00F08EF83A
:1017C000204638BD08A0F9E70CA0F7E710A0F5E720
:1017D00014A0F3E72B444F574E4C4F41443A454D2C
:1017E0005054590D0A0000002B444F574E4C4F41A6
:1017F000443A535543434553530D0A002B444F5726
:101800004E4C4F41443A4C494D49540D0A0000009A
:101810002B444F574E4C4F41443A4641494C454466
:101820000D0A00002B444F574E4C4F41443A414261
:101830004F525445440D0A0008B500208DF80000B1
:10184000431E012269460B48FFF740FD9DF800004A
:1018500043280ED14FF4CC3207A14FF0006000F0C6
:10186000C7FB8DF8000008B109A000E00DA000F052
:1018700035F808BD100100204C315F4C6F52614DAE
:1018800061634669726D776172652E62696E0000F0
:101890002B55504C4F41443A4641494C45440D0A62
:1018A000000000002B55504C4F41443A53554343E0
:1018B0004553530D0A00000001B5074890F8391050
:1018C000032902D1012180F83910642301226946DD
:1018D0000148FFF761FD08BD10010020002201E072
:1018E000521C92B2815C0029FAD10146642301485E
:1018F000FFF752BD100100207FB500250446039577
:10190000FEF7C2FD00950C4D0120CDE9015003A961
:101910006846FEF751FD10B108A0FFF7DFFF224631
:1019200029460220FEF792FD10B10AA0FFF7D6FF6C
:10193000FEF782FD7FBD0000003F0008464C41538A
:1019400048204572617365204661696C2E2E2E0D0C
:101950000A000000464C41534820577269746520C4
:101960004661696C2E2E2E0D0A000000F0B505466A
:1019700000242A7820462346302A2ED16A78782AF5
:1019800001D0582A29D102241CE000BFA2F141064F
:10199000052E07D9A2F16107052F03D91136092EAB
:1019A00004D913E0A2F13007092F01D8303A04E03E
:1019B000052E01D8373A00E0573A641C02EB0313B6
:1019C0000B2C04D22A5D002AE0D103E000202A5D1E
:1019D000002A01D101200B60F0BD2A5D62B16B2AA3
:1019E00001D04B2A02D10CB19B0205E06D2A01D037
:1019F0004D2A04D11CB11B0501200B600AE0A2F1A5
:101A00003006092E0CD803EB83036FF02F0606EB8C
:101A100043031344641C0B2CDED20128DDD1F0BD3E
:101A20000020F0BD10B5FEF727FEBDE81040FFF71F
:101A3000F4BB00001D4800B5016893B021F4C0510B
:101A400041F40061016001200090019002200990A2
:101A5000C0030A904FF440200B904FF400000C900C
:101A60006846FFF711F800B1FEE70F200D90032044
:101A70000E9000200F901090119001210DA8FEF7FC
:101A80009DFE00B1FEE7FEF783FF4FF47A71B0FBD5
:101A9000F1F0FFF7AEFB0420FFF79EFB002211469A
:101AA000501EFEF759FE13B000BD0000007000404C
:101AB0000F48016841F4807101600D4908310A68DE
:101AC0000C4B1A400A6002680B4B1A400260026815
:101AD00022F480220260086820F47D000860002063
:101AE000091D086005494FF000600860704700005C
:101AF000003802400CC0FF88FEFFFEEE08ED00E05B
:101B00002DE9F041044600680169E26821F4405182
:101B1000114301612169A068E269084361691143C9
:101B200008432168CA6849F20C639A430243CA60B9
:101B300020684169A26921F4407111434161E16962
:101B40006425B1F5004F954821684FF032083DD02B
:101B500081427AD1FEF73AFF00EBC00101EB0010A1
:101B600061688900B0FBF1F6FEF730FF00EBC001C1
:101B700001EB001061688900B0FBF1F0B0FBF5F0FB
:101B80006FF01801484306EB800108EB0110B0FB31
:101B9000F5F000F0F006FEF719FF00EBC00101EBD5
:101BA000001061688900B0FBF1F0B0FBF5F006EBC6
:101BB0000016FEF70BFF00EBC00101EB001061689F
:101BC0008900B0FBF1F7FEF701FFD0E081423DD183
:101BD000FEF7FCFE00EBC00101EB0010616849005C
:101BE000B0FBF1F0B0FBF5F00601FEF7EFFE00EB05
:101BF000C00101EB001061684900B0FBF1F7FEF78E
:101C0000E5FE00EBC00101EB001061684900B0FB8C
:101C1000F1F0B0FBF5F06FF01801484307EB8001DD
:101C200008EBC100B0FBF5F000F0F80006EB400651
:101C3000FEF7CCFE00EBC00101EB0010616849002B
:101C4000B0FBF1F7FEF7C2FE3CE055E0FEF7A6FE62
:101C500000EBC00101EB001061684900B0FBF1F03E
:101C6000B0FBF5F00601FEF799FE00EBC00101EBB9
:101C7000001061684900B0FBF1F7FEF78FFE00EB42
:101C8000C00101EB001061684900B0FBF1F0B0FB4E
:101C9000F5F06FF01801484307EB800108EBC10035
:101CA000B0FBF5F000F0F80006EB4006FEF776FE1C
:101CB00000EBC00101EB001061684900B0FBF1F7D7
:101CC000FEF76CFE00EBC00101EB001061684900FB
:101CD000B0FBF1F0B0FBF5F06FF01801484307EBF3
:101CE000800108EBC100B0FBF5F000F007002168AF
:101CF00030448860BDE8F081FEF750FE00EBC00183
:101D000001EB001061688900B0FBF1F6FEF746FEBA
:101D100000EBC00101EB001061688900B0FBF1F03D
:101D2000B0FBF5F06FF01801484306EB800108EBBB
:101D30000110B0FBF5F000F0F006FEF72FFE00EB0F
:101D4000C00101EB001061688900B0FBF1F0B0FB4D
:101D5000F5F006EB0016FEF721FE00EBC00101EBEB
:101D6000001061688900B0FBF1F7FEF717FE00EB89
:101D7000C00101EB001061688900B0FBF1F0B0FB1D
:101D8000F5F06FF01801484307EB800108EB0110F4
:101D9000B0FBF5F000F00F00A9E7000000380140AB
:101DA0002DE9F0471D4690460E460446FEF75EFCC0
:101DB00007465FEA08004FF000094FF0010808D01D
:101DC00030E0681C05D095B1FEF750FCC01BA8425E
:101DD0000DD82068006836EA0000F2D127E0681CC0
:101DE00020D025B1FEF742FCC01BA8421AD92068BA
:101DF000C16821F08001C1602068C16821F0200124
:101E0000C1602068C16821F48071C16020684169A7
:101E100021F00101416184F8398084F83890032071
:101E2000BDE8F0872068006836EA0000D7D00020BF
:101E3000F6E741F4807141F2210240004900CB05F0
:101E400000D5401CC30300D55040CB03F5D580B26C
:101E50007047FEE72DE9F14F0027DFF87CA188B03D
:101E60003E46B9463C46D346ADE000BF4FF00008C1
:101E70004546A4E042F2107204A95848FFF72EFC30
:101E800060B1022868D0B9F1000F00D0761C052E91
:101E90007BD91820FFF710FD18208EE0049800264B
:101EA00060B1022805D04D498B7843450BD01520F1
:101EB00083E00620FFF700FD022480E00620FFF704
:101EC000FBFC01257BE0B8F1000F14D082085846D6
:101ED000091DFEF7C7F9E8B31820FFF7EDFC18203D
:101EE000FFF7EAFC5FF0040408F1010000F0FF08CE
:101EF0004FF0010963E0087968B30020384B091DF1
:101F000002E01A54401C491C0A780AB14028F8D350
:101F10004FF0000C03F800C060466B4601E01A5415
:101F2000401C11F8012F202A01D01028F7D303F804
:101F300000C006A91846FFF719FD08986FF4CC31C8
:101F40000068C84215D918204FF480148DF8140089
:101F5000234602E020E019E029E0012205A92148FA
:101F6000FFF71AFA2346012205A91E48FFF714FAC3
:101F700005241D495046FEF74DF908980699016061
:101F80000620FFF799FC43200EE015E00620FFF73E
:101F900093FC01252F4612E04FF400411348FEF751
:101FA0005BFB049906208B44FFF786FC9CE7182016
:101FB000FFF782FC18207DE74320FFF77DFC55EA00
:101FC00004003FF457AF57EA04003FF44FAF09B0A5
:101FD0002046BDE8F08F00000040000850010020BE
:101FE0005605002010010020009801080000024062
:101FF0002DE9F74F86B04FF0000A0120AF4E019057
:1020000001220898727086F802A0FF23D046554638
:102010005746F370544604E006EB040C641C8CF83D
:1020200004300B5D0BB1402CF6D332190021117135
:10203000014602A8FFF72EFA02A8641D02E03155FE
:10204000641C7F1CC15D0029F9D14FF48019DFF8B1
:102050006CB202E000203055641C842CFAD31FE0DF
:102060005C464E464B468322611C9548FFF794F927
:102070008021201DFEF772F80446000AFFF71CFCC1
:10208000E0B2FFF719FC3346012269468C48FFF79E
:102090001DF960B10AF1010ABAF1050F00D301255B
:1020A00058EA0500DCD006980290089C82E09DF872
:1020B0000000062815D01828EED1334601226946C3
:1020C0007F48FFF703F90028E6D19DF800001828A3
:1020D000E2D10220FEF764F97948006840680225E1
:1020E000DAE74FF00108D7E74FF400417548FEF7F3
:1020F000B3FADDE90103714AC6B24FF480672046A6
:10210000BC4201D3394600E08021884200D3084612
:10211000B1F5806F07D0012757709670F643D670DF
:102120000426071D07E00227F6E700BF13F801CBDE
:1021300002F806C0761CBE42F8D3884207D81A239C
:10214000001D091D01E01354401C8842FBD34FF0D1
:10215000000A8DF800A0574629E000BF4FF48066C2
:10216000B44200D28026F21C4B46D8460BF1010146
:102170005348FFF711F9314608F10400FDF7EEFF6F
:102180008046000AFFF798FB08F0FF00FFF794FB7A
:102190004B46012269464A48FFF798F818B99DF85E
:1021A0000000062811D07F1C052F00D301255AEA14
:1021B0000500D3D00CB1002D96D0002426468DF812
:1021C00000402746DFF8F8801FE002984FF0010A30
:1021D0003044B442029008D90198A41B662802D06A
:1021E000401C0190E0E70525DEE70024DCE7042041
:1021F000FFF762FB4B46012269463148FFF766F85C
:1022000040B17F1C052F00D3012554EA0500EED014
:10221000E5B14EE09DF80000062815D01828F1D150
:102220004B46012269462648FFF750F80028E9D1BD
:102230009DF800001828E5D10220FEF7B1F8D8F883
:10224000000040680225DDE70124DBE701208BF870
:1022500001008BF80260FF208BF803005C4604202D
:102260002654401CC0B28428FAD34E464B468322E3
:10227000611C1348FFF790F88021201DFDF76EFFC9
:102280000446000AFFF718FBE0B2FFF715FB3346E0
:10229000012269460A48FFF719F850B99DF8000075
:1022A000182806D10220FEF77BF8D8F80000406815
:1022B000022509B02846BDE8F08F0000500100203B
:1022C0001001002000000240FEE70000014A024920
:1022D00000F013B81D2300080C01002002E008C81C
:1022E000121F08C1002AFAD170477047002001E090
:1022F00001C1121F002AFBD170472DE9F04116469B
:102300000F460446002503E03946B047641C6D1CA7
:1023100020780028F8D12846BDE8F08113B5642361
:10232000012269460248FFF737F800981CBD0000FB
:1023300010010020FEF7A8F9FFF77CFBFFF7CAF8B1
:10234000FDF782FFFFF7EAF8244C20682449254F67
:10235000254DDFF89890DFF898A0264E4FF4AC3862
:10236000884206D020682449884202D02068B042C2
:102370001DD122A0FFF7B2FA0122D1032348FEF7B4
:102380006FF92068B0420FD139462846FDF742FF69
:10239000424629464846FDF7F7FE5046FFF7ACFA9D
:1023A0006420FDF7FDFF15E0FFF7F8F814E018A032
:1023B000FFF794FA20681A4988420BD1394628461B
:1023C000FDF728FF424629464846FDF7DDFE504608
:1023D000FFF792FAFFF748F8FEE70000003F000819
:1023E00078563412009801080040000800A801083F
:1023F000682457133175428621436587626F6F7475
:102400006C6F616465720D0A0000000000000240FC
:102410006170706C69636174696F6E0D0A00000011
:1024200057136824030406080C101820300000001D
:102430000000000000010203040607080900000074
:1024400000010203040000007824000800000020BE
:10245000F4000000DC2200086C250008F4000020D5
:102460001C000000DC220008882500081001002064
:10247000A0080000EC2200081D4900E0401E0A6888
:10248000D20702D00028F9D12EE068B3086880078F
:1024900001D5022008600868C00505D40868000559
:1024A00002D40868800521D508680022C3051148B8
:1024B00005D5426942F0020242614FF480720B6816
:1024C0009B0505D5436943F00103436142F4007263
:1024D0000B681B0505D5436943F00403436142F4CF
:1024E00000620A6001207047032070470020704797
:1024F000183C0240980500202DE9F0474FF0E028F5
:102500000E46D8F808100746002541F00101C8F82A
:1025100008104CF250394846FFF7AEFFD8B9124CBC
:10252000206840F480602060206840F0080020604F
:1025300072B601CE47F825006D1C202DF9D3484610
:10254000FFF79AFF62B6216821F008012160216837
:1025500021F480612160D8F8082022F00102C8F837
:102560000820BDE8F0870000043C024000000000A5
:10257000000000000000000000000000000000005B
:0825800068FF1F0000000000CD
:04000005080000F5FA
:00000001FF
